{
  "_format": "hh-sol-artifact-1",
  "contractName": "RandomIpfsNft",
  "sourceName": "contracts/RandomIpfsNft.sol",
  "abi": [
    {
      "inputs": [
        {
          "internalType": "address",
          "name": "vrfCoordinator2",
          "type": "address"
        },
        {
          "internalType": "bytes32",
          "name": "gasLane",
          "type": "bytes32"
        },
        {
          "internalType": "uint64",
          "name": "subscriptionID",
          "type": "uint64"
        },
        {
          "internalType": "uint32",
          "name": "callbackGasLimit",
          "type": "uint32"
        },
        {
          "internalType": "string[3]",
          "name": "dogTokenUris",
          "type": "string[3]"
        }
      ],
      "stateMutability": "nonpayable",
      "type": "constructor"
    },
    {
      "inputs": [
        {
          "internalType": "address",
          "name": "have",
          "type": "address"
        },
        {
          "internalType": "address",
          "name": "want",
          "type": "address"
        }
      ],
      "name": "OnlyCoordinatorCanFulfill",
      "type": "error"
    },
    {
      "anonymous": false,
      "inputs": [
        {
          "indexed": true,
          "internalType": "address",
          "name": "owner",
          "type": "address"
        },
        {
          "indexed": true,
          "internalType": "address",
          "name": "approved",
          "type": "address"
        },
        {
          "indexed": true,
          "internalType": "uint256",
          "name": "tokenId",
          "type": "uint256"
        }
      ],
      "name": "Approval",
      "type": "event"
    },
    {
      "anonymous": false,
      "inputs": [
        {
          "indexed": true,
          "internalType": "address",
          "name": "owner",
          "type": "address"
        },
        {
          "indexed": true,
          "internalType": "address",
          "name": "operator",
          "type": "address"
        },
        {
          "indexed": false,
          "internalType": "bool",
          "name": "approved",
          "type": "bool"
        }
      ],
      "name": "ApprovalForAll",
      "type": "event"
    },
    {
      "anonymous": false,
      "inputs": [
        {
          "indexed": true,
          "internalType": "address",
          "name": "from",
          "type": "address"
        },
        {
          "indexed": true,
          "internalType": "address",
          "name": "to",
          "type": "address"
        },
        {
          "indexed": true,
          "internalType": "uint256",
          "name": "tokenId",
          "type": "uint256"
        }
      ],
      "name": "Transfer",
      "type": "event"
    },
    {
      "inputs": [],
      "name": "MAX_CHANCE_VALUE",
      "outputs": [
        {
          "internalType": "uint256",
          "name": "",
          "type": "uint256"
        }
      ],
      "stateMutability": "view",
      "type": "function"
    },
    {
      "inputs": [],
      "name": "NUM_WORDS",
      "outputs": [
        {
          "internalType": "uint16",
          "name": "",
          "type": "uint16"
        }
      ],
      "stateMutability": "view",
      "type": "function"
    },
    {
      "inputs": [],
      "name": "REQUESTCONFIRMATION",
      "outputs": [
        {
          "internalType": "uint16",
          "name": "",
          "type": "uint16"
        }
      ],
      "stateMutability": "view",
      "type": "function"
    },
    {
      "inputs": [
        {
          "internalType": "address",
          "name": "to",
          "type": "address"
        },
        {
          "internalType": "uint256",
          "name": "tokenId",
          "type": "uint256"
        }
      ],
      "name": "approve",
      "outputs": [],
      "stateMutability": "nonpayable",
      "type": "function"
    },
    {
      "inputs": [
        {
          "internalType": "address",
          "name": "owner",
          "type": "address"
        }
      ],
      "name": "balanceOf",
      "outputs": [
        {
          "internalType": "uint256",
          "name": "",
          "type": "uint256"
        }
      ],
      "stateMutability": "view",
      "type": "function"
    },
    {
      "inputs": [
        {
          "internalType": "uint256",
          "name": "tokenId",
          "type": "uint256"
        }
      ],
      "name": "getApproved",
      "outputs": [
        {
          "internalType": "address",
          "name": "",
          "type": "address"
        }
      ],
      "stateMutability": "view",
      "type": "function"
    },
    {
      "inputs": [
        {
          "internalType": "uint256",
          "name": "moddedRng",
          "type": "uint256"
        }
      ],
      "name": "getBreedFromModdedPug",
      "outputs": [
        {
          "internalType": "uint256",
          "name": "",
          "type": "uint256"
        }
      ],
      "stateMutability": "pure",
      "type": "function"
    },
    {
      "inputs": [],
      "name": "getChanceArray",
      "outputs": [
        {
          "internalType": "uint256[3]",
          "name": "",
          "type": "uint256[3]"
        }
      ],
      "stateMutability": "pure",
      "type": "function"
    },
    {
      "inputs": [],
      "name": "i_callbackGasLimit",
      "outputs": [
        {
          "internalType": "uint32",
          "name": "",
          "type": "uint32"
        }
      ],
      "stateMutability": "view",
      "type": "function"
    },
    {
      "inputs": [],
      "name": "i_gasLane",
      "outputs": [
        {
          "internalType": "bytes32",
          "name": "",
          "type": "bytes32"
        }
      ],
      "stateMutability": "view",
      "type": "function"
    },
    {
      "inputs": [],
      "name": "i_subscriptionID",
      "outputs": [
        {
          "internalType": "uint64",
          "name": "",
          "type": "uint64"
        }
      ],
      "stateMutability": "view",
      "type": "function"
    },
    {
      "inputs": [
        {
          "internalType": "address",
          "name": "owner",
          "type": "address"
        },
        {
          "internalType": "address",
          "name": "operator",
          "type": "address"
        }
      ],
      "name": "isApprovedForAll",
      "outputs": [
        {
          "internalType": "bool",
          "name": "",
          "type": "bool"
        }
      ],
      "stateMutability": "view",
      "type": "function"
    },
    {
      "inputs": [],
      "name": "name",
      "outputs": [
        {
          "internalType": "string",
          "name": "",
          "type": "string"
        }
      ],
      "stateMutability": "view",
      "type": "function"
    },
    {
      "inputs": [
        {
          "internalType": "uint256",
          "name": "tokenId",
          "type": "uint256"
        }
      ],
      "name": "ownerOf",
      "outputs": [
        {
          "internalType": "address",
          "name": "",
          "type": "address"
        }
      ],
      "stateMutability": "view",
      "type": "function"
    },
    {
      "inputs": [
        {
          "internalType": "uint256",
          "name": "requestId",
          "type": "uint256"
        },
        {
          "internalType": "uint256[]",
          "name": "randomWords",
          "type": "uint256[]"
        }
      ],
      "name": "rawFulfillRandomWords",
      "outputs": [],
      "stateMutability": "nonpayable",
      "type": "function"
    },
    {
      "inputs": [],
      "name": "requestADog",
      "outputs": [
        {
          "internalType": "uint256",
          "name": "requestId",
          "type": "uint256"
        }
      ],
      "stateMutability": "nonpayable",
      "type": "function"
    },
    {
      "inputs": [
        {
          "internalType": "uint256",
          "name": "",
          "type": "uint256"
        }
      ],
      "name": "s_dogTokenUris",
      "outputs": [
        {
          "internalType": "string",
          "name": "",
          "type": "string"
        }
      ],
      "stateMutability": "view",
      "type": "function"
    },
    {
      "inputs": [
        {
          "internalType": "uint256",
          "name": "",
          "type": "uint256"
        }
      ],
      "name": "s_requestIdToSender",
      "outputs": [
        {
          "internalType": "address",
          "name": "",
          "type": "address"
        }
      ],
      "stateMutability": "view",
      "type": "function"
    },
    {
      "inputs": [],
      "name": "s_tokenCounter",
      "outputs": [
        {
          "internalType": "uint256",
          "name": "",
          "type": "uint256"
        }
      ],
      "stateMutability": "view",
      "type": "function"
    },
    {
      "inputs": [
        {
          "internalType": "address",
          "name": "from",
          "type": "address"
        },
        {
          "internalType": "address",
          "name": "to",
          "type": "address"
        },
        {
          "internalType": "uint256",
          "name": "tokenId",
          "type": "uint256"
        }
      ],
      "name": "safeTransferFrom",
      "outputs": [],
      "stateMutability": "nonpayable",
      "type": "function"
    },
    {
      "inputs": [
        {
          "internalType": "address",
          "name": "from",
          "type": "address"
        },
        {
          "internalType": "address",
          "name": "to",
          "type": "address"
        },
        {
          "internalType": "uint256",
          "name": "tokenId",
          "type": "uint256"
        },
        {
          "internalType": "bytes",
          "name": "_data",
          "type": "bytes"
        }
      ],
      "name": "safeTransferFrom",
      "outputs": [],
      "stateMutability": "nonpayable",
      "type": "function"
    },
    {
      "inputs": [
        {
          "internalType": "address",
          "name": "operator",
          "type": "address"
        },
        {
          "internalType": "bool",
          "name": "approved",
          "type": "bool"
        }
      ],
      "name": "setApprovalForAll",
      "outputs": [],
      "stateMutability": "nonpayable",
      "type": "function"
    },
    {
      "inputs": [
        {
          "internalType": "bytes4",
          "name": "interfaceId",
          "type": "bytes4"
        }
      ],
      "name": "supportsInterface",
      "outputs": [
        {
          "internalType": "bool",
          "name": "",
          "type": "bool"
        }
      ],
      "stateMutability": "view",
      "type": "function"
    },
    {
      "inputs": [],
      "name": "symbol",
      "outputs": [
        {
          "internalType": "string",
          "name": "",
          "type": "string"
        }
      ],
      "stateMutability": "view",
      "type": "function"
    },
    {
      "inputs": [
        {
          "internalType": "uint256",
          "name": "tokenId",
          "type": "uint256"
        }
      ],
      "name": "tokenURI",
      "outputs": [
        {
          "internalType": "string",
          "name": "",
          "type": "string"
        }
      ],
      "stateMutability": "view",
      "type": "function"
    },
    {
      "inputs": [
        {
          "internalType": "address",
          "name": "from",
          "type": "address"
        },
        {
          "internalType": "address",
          "name": "to",
          "type": "address"
        },
        {
          "internalType": "uint256",
          "name": "tokenId",
          "type": "uint256"
        }
      ],
      "name": "transferFrom",
      "outputs": [],
      "stateMutability": "nonpayable",
      "type": "function"
    }
  ],
  "bytecode": "0x6101206040523480156200001257600080fd5b5060405162003ede38038062003ede8339818101604052810190620000389190620004c3565b846040518060400160405280600f81526020017f52616e646f6d2049504653204e465400000000000000000000000000000000008152506040518060400160405280600381526020017f52494e00000000000000000000000000000000000000000000000000000000008152508160009080519060200190620000bd929190620001ae565b508060019080519060200190620000d6929190620001ae565b5050508073ffffffffffffffffffffffffffffffffffffffff1660808173ffffffffffffffffffffffffffffffffffffffff1660601b81525050508473ffffffffffffffffffffffffffffffffffffffff1660a08173ffffffffffffffffffffffffffffffffffffffff1660601b815250508360c081815250508267ffffffffffffffff1660e08167ffffffffffffffff1660c01b815250508163ffffffff166101008163ffffffff1660e01b815250506000600881905550806009906003620001a29291906200023f565b505050505050620007e6565b828054620001bc906200068a565b90600052602060002090601f016020900481019282620001e057600085556200022c565b82601f10620001fb57805160ff19168380011785556200022c565b828001600101855582156200022c579182015b828111156200022b5782518255916020019190600101906200020e565b5b5090506200023b919062000299565b5090565b826003810192821562000286579160200282015b828111156200028557825182908051906020019062000274929190620001ae565b509160200191906001019062000253565b5b509050620002959190620002b8565b5090565b5b80821115620002b45760008160009055506001016200029a565b5090565b5b80821115620002dc5760008181620002d29190620002e0565b50600101620002b9565b5090565b508054620002ee906200068a565b6000825580601f1062000302575062000323565b601f01602090049060005260206000209081019062000322919062000299565b5b50565b60006200033d620003378462000593565b6200056a565b905080828560208602820111156200035a576200035962000759565b5b60005b85811015620003af57815167ffffffffffffffff81111562000384576200038362000754565b5b80860162000393898262000462565b855260208501945060208401935050506001810190506200035d565b5050509392505050565b6000620003d0620003ca84620005bc565b6200056a565b905082815260208101848484011115620003ef57620003ee6200075e565b5b620003fc84828562000654565b509392505050565b60008151905062000415816200077e565b92915050565b600082601f83011262000433576200043262000754565b5b60036200044284828562000326565b91505092915050565b6000815190506200045c8162000798565b92915050565b600082601f8301126200047a576200047962000754565b5b81516200048c848260208601620003b9565b91505092915050565b600081519050620004a681620007b2565b92915050565b600081519050620004bd81620007cc565b92915050565b600080600080600060a08688031215620004e257620004e162000768565b5b6000620004f28882890162000404565b955050602062000505888289016200044b565b94505060406200051888828901620004ac565b93505060606200052b8882890162000495565b925050608086015167ffffffffffffffff8111156200054f576200054e62000763565b5b6200055d888289016200041b565b9150509295509295909350565b60006200057662000589565b9050620005848282620006c0565b919050565b6000604051905090565b600067ffffffffffffffff821115620005b157620005b062000725565b5b602082029050919050565b600067ffffffffffffffff821115620005da57620005d962000725565b5b620005e5826200076d565b9050602081019050919050565b6000620005ff8262000610565b9050919050565b6000819050919050565b600073ffffffffffffffffffffffffffffffffffffffff82169050919050565b600063ffffffff82169050919050565b600067ffffffffffffffff82169050919050565b60005b838110156200067457808201518184015260208101905062000657565b8381111562000684576000848401525b50505050565b60006002820490506001821680620006a357607f821691505b60208210811415620006ba57620006b9620006f6565b5b50919050565b620006cb826200076d565b810181811067ffffffffffffffff82111715620006ed57620006ec62000725565b5b80604052505050565b7f4e487b7100000000000000000000000000000000000000000000000000000000600052602260045260246000fd5b7f4e487b7100000000000000000000000000000000000000000000000000000000600052604160045260246000fd5b600080fd5b600080fd5b600080fd5b600080fd5b600080fd5b6000601f19601f8301169050919050565b6200078981620005f2565b81146200079557600080fd5b50565b620007a38162000606565b8114620007af57600080fd5b50565b620007bd8162000630565b8114620007c957600080fd5b50565b620007d78162000640565b8114620007e357600080fd5b50565b60805160601c60a05160601c60c05160e05160c01c6101005160e01c61368b6200085360003960008181610a3801526110b50152600081816105360152610a150152600081816109f40152610d5f015260006109b801526000818161087601526108ca015261368b6000f3fe608060405234801561001057600080fd5b506004361061018d5760003560e01c80636352211e116100de578063a36f573b11610097578063c87b56dd11610071578063c87b56dd14610498578063d757d027146104c8578063da1b9e29146104e6578063e985e9c5146105045761018d565b8063a36f573b1461041c578063b88d4fde1461044c578063c42b65e2146104685761018d565b80636352211e1461034657806370a082311461037657806372cf6e34146103a65780638e879c8a146103c457806395d89b41146103e2578063a22cb465146104005761018d565b80630b21a83b1161014b57806342842e0e1161012557806342842e0e146102be5780634eda4fad146102da5780635dacf5f4146102f85780635e5cc459146103165761018d565b80630b21a83b146102685780631fe543e31461028657806323b872dd146102a25761018d565b8062f5050a1461019257806301ffc9a7146101b057806306fdde03146101e0578063081812fc146101fe578063082c521c1461022e578063095ea7b31461024c575b600080fd5b61019a610534565b6040516101a79190612cbd565b60405180910390f35b6101ca60048036038101906101c59190612419565b610558565b6040516101d791906129c1565b60405180910390f35b6101e861063a565b6040516101f59190612a4a565b60405180910390f35b61021860048036038101906102139190612473565b6106cc565b6040516102259190612916565b60405180910390f35b610236610751565b6040516102439190612c6c565b60405180910390f35b610266600480360381019061026191906123d9565b610756565b005b61027061086e565b60405161027d9190612c87565b60405180910390f35b6102a0600480360381019061029b91906124cd565b610874565b005b6102bc60048036038101906102b791906122c3565b610934565b005b6102d860048036038101906102d391906122c3565b610994565b005b6102e26109b4565b6040516102ef9190612c87565b60405180910390f35b610300610b22565b60405161030d91906129a6565b60405180910390f35b610330600480360381019061032b9190612473565b610b4d565b60405161033d9190612c87565b60405180910390f35b610360600480360381019061035b9190612473565b610bee565b60405161036d9190612916565b60405180910390f35b610390600480360381019061038b9190612256565b610ca0565b60405161039d9190612c87565b60405180910390f35b6103ae610d58565b6040516103bb9190612c6c565b60405180910390f35b6103cc610d5d565b6040516103d991906129dc565b60405180910390f35b6103ea610d81565b6040516103f79190612a4a565b60405180910390f35b61041a60048036038101906104159190612399565b610e13565b005b61043660048036038101906104319190612473565b610e29565b6040516104439190612916565b60405180910390f35b61046660048036038101906104619190612316565b610e5c565b005b610482600480360381019061047d9190612473565b610ebe565b60405161048f9190612a4a565b60405180910390f35b6104b260048036038101906104ad9190612473565b610f61565b6040516104bf9190612a4a565b60405180910390f35b6104d06110b3565b6040516104dd9190612ca2565b60405180910390f35b6104ee6110d7565b6040516104fb9190612c87565b60405180910390f35b61051e60048036038101906105199190612283565b6110dc565b60405161052b91906129c1565b60405180910390f35b7f000000000000000000000000000000000000000000000000000000000000000081565b60007f80ac58cd000000000000000000000000000000000000000000000000000000007bffffffffffffffffffffffffffffffffffffffffffffffffffffffff1916827bffffffffffffffffffffffffffffffffffffffffffffffffffffffff1916148061062357507f5b5e139f000000000000000000000000000000000000000000000000000000007bffffffffffffffffffffffffffffffffffffffffffffffffffffffff1916827bffffffffffffffffffffffffffffffffffffffffffffffffffffffff1916145b80610633575061063282611170565b5b9050919050565b60606000805461064990612f89565b80601f016020809104026020016040519081016040528092919081815260200182805461067590612f89565b80156106c25780601f10610697576101008083540402835291602001916106c2565b820191906000526020600020905b8154815290600101906020018083116106a557829003601f168201915b5050505050905090565b60006106d7826111da565b610716576040517f08c379a000000000000000000000000000000000000000000000000000000000815260040161070d90612bec565b60405180910390fd5b6004600083815260200190815260200160002060009054906101000a900473ffffffffffffffffffffffffffffffffffffffff169050919050565b600781565b600061076182610bee565b90508073ffffffffffffffffffffffffffffffffffffffff168373ffffffffffffffffffffffffffffffffffffffff1614156107d2576040517f08c379a00000000000000000000000000000000000000000000000000000000081526004016107c990612c2c565b60405180910390fd5b8073ffffffffffffffffffffffffffffffffffffffff166107f1611246565b73ffffffffffffffffffffffffffffffffffffffff161480610820575061081f8161081a611246565b6110dc565b5b61085f576040517f08c379a000000000000000000000000000000000000000000000000000000000815260040161085690612b2c565b60405180910390fd5b610869838361124e565b505050565b60085481565b7f000000000000000000000000000000000000000000000000000000000000000073ffffffffffffffffffffffffffffffffffffffff163373ffffffffffffffffffffffffffffffffffffffff161461092657337f00000000000000000000000000000000000000000000000000000000000000006040517f1cf993f400000000000000000000000000000000000000000000000000000000815260040161091d929190612931565b60405180910390fd5b6109308282611307565b5050565b61094561093f611246565b8261144d565b610984576040517f08c379a000000000000000000000000000000000000000000000000000000000815260040161097b90612c4c565b60405180910390fd5b61098f83838361152b565b505050565b6109af83838360405180602001604052806000815250610e5c565b505050565b60007f000000000000000000000000000000000000000000000000000000000000000073ffffffffffffffffffffffffffffffffffffffff16635d3b1d307f00000000000000000000000000000000000000000000000000000000000000007f000000000000000000000000000000000000000000000000000000000000000060077f000000000000000000000000000000000000000000000000000000000000000060036040518663ffffffff1660e01b8152600401610a799594939291906129f7565b602060405180830381600087803b158015610a9357600080fd5b505af1158015610aa7573d6000803e3d6000fd5b505050506040513d601f19601f82011682018060405250810190610acb91906124a0565b9050336007600083815260200190815260200160002060006101000a81548173ffffffffffffffffffffffffffffffffffffffff021916908373ffffffffffffffffffffffffffffffffffffffff16021790555090565b610b2a612005565b6040518060600160405280600a8152602001601e81526020016064815250905090565b600080600090506000610b5e610b22565b905060005b6003811015610be557828510158015610b9d5750818160038110610b8a57610b896130f3565b5b602002015183610b9a9190612dca565b85105b15610bad57809350505050610be9565b818160038110610bc057610bbf6130f3565b5b602002015183610bd09190612dca565b92508080610bdd90612fec565b915050610b63565b5050505b919050565b6000806002600084815260200190815260200160002060009054906101000a900473ffffffffffffffffffffffffffffffffffffffff169050600073ffffffffffffffffffffffffffffffffffffffff168173ffffffffffffffffffffffffffffffffffffffff161415610c97576040517f08c379a0000000000000000000000000000000000000000000000000000000008152600401610c8e90612b6c565b60405180910390fd5b80915050919050565b60008073ffffffffffffffffffffffffffffffffffffffff168273ffffffffffffffffffffffffffffffffffffffff161415610d11576040517f08c379a0000000000000000000000000000000000000000000000000000000008152600401610d0890612b4c565b60405180910390fd5b600360008373ffffffffffffffffffffffffffffffffffffffff1673ffffffffffffffffffffffffffffffffffffffff168152602001908152602001600020549050919050565b600381565b7f000000000000000000000000000000000000000000000000000000000000000081565b606060018054610d9090612f89565b80601f0160208091040260200160405190810160405280929190818152602001828054610dbc90612f89565b8015610e095780601f10610dde57610100808354040283529160200191610e09565b820191906000526020600020905b815481529060010190602001808311610dec57829003601f168201915b5050505050905090565b610e25610e1e611246565b8383611792565b5050565b60076020528060005260406000206000915054906101000a900473ffffffffffffffffffffffffffffffffffffffff1681565b610e6d610e67611246565b8361144d565b610eac576040517f08c379a0000000000000000000000000000000000000000000000000000000008152600401610ea390612c4c565b60405180910390fd5b610eb8848484846118ff565b50505050565b60098160038110610ece57600080fd5b016000915090508054610ee090612f89565b80601f0160208091040260200160405190810160405280929190818152602001828054610f0c90612f89565b8015610f595780601f10610f2e57610100808354040283529160200191610f59565b820191906000526020600020905b815481529060010190602001808311610f3c57829003601f168201915b505050505081565b6060610f6c826111da565b610fab576040517f08c379a0000000000000000000000000000000000000000000000000000000008152600401610fa290612bcc565b60405180910390fd5b6000600660008481526020019081526020016000208054610fcb90612f89565b80601f0160208091040260200160405190810160405280929190818152602001828054610ff790612f89565b80156110445780601f1061101957610100808354040283529160200191611044565b820191906000526020600020905b81548152906001019060200180831161102757829003601f168201915b50505050509050600061105561195b565b905060008151141561106b5781925050506110ae565b6000825111156110a05780826040516020016110889291906128f2565b604051602081830303815290604052925050506110ae565b6110a984611972565b925050505b919050565b7f000000000000000000000000000000000000000000000000000000000000000081565b606481565b6000600560008473ffffffffffffffffffffffffffffffffffffffff1673ffffffffffffffffffffffffffffffffffffffff16815260200190815260200160002060008373ffffffffffffffffffffffffffffffffffffffff1673ffffffffffffffffffffffffffffffffffffffff16815260200190815260200160002060009054906101000a900460ff16905092915050565b60007f01ffc9a7000000000000000000000000000000000000000000000000000000007bffffffffffffffffffffffffffffffffffffffffffffffffffffffff1916827bffffffffffffffffffffffffffffffffffffffffffffffffffffffff1916149050919050565b60008073ffffffffffffffffffffffffffffffffffffffff166002600084815260200190815260200160002060009054906101000a900473ffffffffffffffffffffffffffffffffffffffff1673ffffffffffffffffffffffffffffffffffffffff1614159050919050565b600033905090565b816004600083815260200190815260200160002060006101000a81548173ffffffffffffffffffffffffffffffffffffffff021916908373ffffffffffffffffffffffffffffffffffffffff160217905550808273ffffffffffffffffffffffffffffffffffffffff166112c183610bee565b73ffffffffffffffffffffffffffffffffffffffff167f8c5be1e5ebec7d5bd14f71427d1e84f3dd0314c0f7b2291e5b200ac8c7c3b92560405160405180910390a45050565b60006007600084815260200190815260200160002060009054906101000a900473ffffffffffffffffffffffffffffffffffffffff1690506000600854905060016008546113559190612dca565b6008819055506000606484600081518110611373576113726130f3565b5b60200260200101516113859190613035565b9050600061139282610b4d565b905061139e8484611a19565b61144583600983600381106113b6576113b56130f3565b5b0180546113c290612f89565b80601f01602080910402602001604051908101604052809291908181526020018280546113ee90612f89565b801561143b5780601f106114105761010080835404028352916020019161143b565b820191906000526020600020905b81548152906001019060200180831161141e57829003601f168201915b5050505050611a37565b505050505050565b6000611458826111da565b611497576040517f08c379a000000000000000000000000000000000000000000000000000000000815260040161148e90612b0c565b60405180910390fd5b60006114a283610bee565b90508073ffffffffffffffffffffffffffffffffffffffff168473ffffffffffffffffffffffffffffffffffffffff1614806114e457506114e381856110dc565b5b8061152257508373ffffffffffffffffffffffffffffffffffffffff1661150a846106cc565b73ffffffffffffffffffffffffffffffffffffffff16145b91505092915050565b8273ffffffffffffffffffffffffffffffffffffffff1661154b82610bee565b73ffffffffffffffffffffffffffffffffffffffff16146115a1576040517f08c379a000000000000000000000000000000000000000000000000000000000815260040161159890612a8c565b60405180910390fd5b600073ffffffffffffffffffffffffffffffffffffffff168273ffffffffffffffffffffffffffffffffffffffff161415611611576040517f08c379a000000000000000000000000000000000000000000000000000000000815260040161160890612acc565b60405180910390fd5b61161c838383611aab565b61162760008261124e565b6001600360008573ffffffffffffffffffffffffffffffffffffffff1673ffffffffffffffffffffffffffffffffffffffff16815260200190815260200160002060008282546116779190612e51565b925050819055506001600360008473ffffffffffffffffffffffffffffffffffffffff1673ffffffffffffffffffffffffffffffffffffffff16815260200190815260200160002060008282546116ce9190612dca565b92505081905550816002600083815260200190815260200160002060006101000a81548173ffffffffffffffffffffffffffffffffffffffff021916908373ffffffffffffffffffffffffffffffffffffffff160217905550808273ffffffffffffffffffffffffffffffffffffffff168473ffffffffffffffffffffffffffffffffffffffff167fddf252ad1be2c89b69c2b068fc378daa952ba7f163c4a11628f55a4df523b3ef60405160405180910390a461178d838383611ab0565b505050565b8173ffffffffffffffffffffffffffffffffffffffff168373ffffffffffffffffffffffffffffffffffffffff161415611801576040517f08c379a00000000000000000000000000000000000000000000000000000000081526004016117f890612aec565b60405180910390fd5b80600560008573ffffffffffffffffffffffffffffffffffffffff1673ffffffffffffffffffffffffffffffffffffffff16815260200190815260200160002060008473ffffffffffffffffffffffffffffffffffffffff1673ffffffffffffffffffffffffffffffffffffffff16815260200190815260200160002060006101000a81548160ff0219169083151502179055508173ffffffffffffffffffffffffffffffffffffffff168373ffffffffffffffffffffffffffffffffffffffff167f17307eab39ab6107e8899845ad3d59bd9653f200f220920489ca2b5937696c31836040516118f291906129c1565b60405180910390a3505050565b61190a84848461152b565b61191684848484611ab5565b611955576040517f08c379a000000000000000000000000000000000000000000000000000000000815260040161194c90612a6c565b60405180910390fd5b50505050565b606060405180602001604052806000815250905090565b606061197d826111da565b6119bc576040517f08c379a00000000000000000000000000000000000000000000000000000000081526004016119b390612c0c565b60405180910390fd5b60006119c661195b565b905060008151116119e65760405180602001604052806000815250611a11565b806119f084611c4c565b604051602001611a019291906128f2565b6040516020818303038152906040525b915050919050565b611a33828260405180602001604052806000815250611dad565b5050565b611a40826111da565b611a7f576040517f08c379a0000000000000000000000000000000000000000000000000000000008152600401611a7690612b8c565b60405180910390fd5b80600660008481526020019081526020016000209080519060200190611aa6929190612027565b505050565b505050565b505050565b6000611ad68473ffffffffffffffffffffffffffffffffffffffff16611e08565b15611c3f578373ffffffffffffffffffffffffffffffffffffffff1663150b7a02611aff611246565b8786866040518563ffffffff1660e01b8152600401611b21949392919061295a565b602060405180830381600087803b158015611b3b57600080fd5b505af1925050508015611b6c57506040513d601f19601f82011682018060405250810190611b699190612446565b60015b611bef573d8060008114611b9c576040519150601f19603f3d011682016040523d82523d6000602084013e611ba1565b606091505b50600081511415611be7576040517f08c379a0000000000000000000000000000000000000000000000000000000008152600401611bde90612a6c565b60405180910390fd5b805181602001fd5b63150b7a0260e01b7bffffffffffffffffffffffffffffffffffffffffffffffffffffffff1916817bffffffffffffffffffffffffffffffffffffffffffffffffffffffff191614915050611c44565b600190505b949350505050565b60606000821415611c94576040518060400160405280600181526020017f30000000000000000000000000000000000000000000000000000000000000008152509050611da8565b600082905060005b60008214611cc6578080611caf90612fec565b915050600a82611cbf9190612e20565b9150611c9c565b60008167ffffffffffffffff811115611ce257611ce1613122565b5b6040519080825280601f01601f191660200182016040528015611d145781602001600182028036833780820191505090505b5090505b60008514611da157600182611d2d9190612e51565b9150600a85611d3c9190613035565b6030611d489190612dca565b60f81b818381518110611d5e57611d5d6130f3565b5b60200101907effffffffffffffffffffffffffffffffffffffffffffffffffffffffffffff1916908160001a905350600a85611d9a9190612e20565b9450611d18565b8093505050505b919050565b611db78383611e2b565b611dc46000848484611ab5565b611e03576040517f08c379a0000000000000000000000000000000000000000000000000000000008152600401611dfa90612a6c565b60405180910390fd5b505050565b6000808273ffffffffffffffffffffffffffffffffffffffff163b119050919050565b600073ffffffffffffffffffffffffffffffffffffffff168273ffffffffffffffffffffffffffffffffffffffff161415611e9b576040517f08c379a0000000000000000000000000000000000000000000000000000000008152600401611e9290612bac565b60405180910390fd5b611ea4816111da565b15611ee4576040517f08c379a0000000000000000000000000000000000000000000000000000000008152600401611edb90612aac565b60405180910390fd5b611ef060008383611aab565b6001600360008473ffffffffffffffffffffffffffffffffffffffff1673ffffffffffffffffffffffffffffffffffffffff1681526020019081526020016000206000828254611f409190612dca565b92505081905550816002600083815260200190815260200160002060006101000a81548173ffffffffffffffffffffffffffffffffffffffff021916908373ffffffffffffffffffffffffffffffffffffffff160217905550808273ffffffffffffffffffffffffffffffffffffffff16600073ffffffffffffffffffffffffffffffffffffffff167fddf252ad1be2c89b69c2b068fc378daa952ba7f163c4a11628f55a4df523b3ef60405160405180910390a461200160008383611ab0565b5050565b6040518060600160405280600390602082028036833780820191505090505090565b82805461203390612f89565b90600052602060002090601f016020900481019282612055576000855561209c565b82601f1061206e57805160ff191683800117855561209c565b8280016001018555821561209c579182015b8281111561209b578251825591602001919060010190612080565b5b5090506120a991906120ad565b5090565b5b808211156120c65760008160009055506001016120ae565b5090565b60006120dd6120d884612cfd565b612cd8565b90508083825260208201905082856020860282011115612100576120ff613156565b5b60005b858110156121305781612116888261222c565b845260208401935060208301925050600181019050612103565b5050509392505050565b600061214d61214884612d29565b612cd8565b9050828152602081018484840111156121695761216861315b565b5b612174848285612f47565b509392505050565b60008135905061218b816135f9565b92915050565b600082601f8301126121a6576121a5613151565b5b81356121b68482602086016120ca565b91505092915050565b6000813590506121ce81613610565b92915050565b6000813590506121e381613627565b92915050565b6000815190506121f881613627565b92915050565b600082601f83011261221357612212613151565b5b813561222384826020860161213a565b91505092915050565b60008135905061223b8161363e565b92915050565b6000815190506122508161363e565b92915050565b60006020828403121561226c5761226b613165565b5b600061227a8482850161217c565b91505092915050565b6000806040838503121561229a57612299613165565b5b60006122a88582860161217c565b92505060206122b98582860161217c565b9150509250929050565b6000806000606084860312156122dc576122db613165565b5b60006122ea8682870161217c565b93505060206122fb8682870161217c565b925050604061230c8682870161222c565b9150509250925092565b600080600080608085870312156123305761232f613165565b5b600061233e8782880161217c565b945050602061234f8782880161217c565b93505060406123608782880161222c565b925050606085013567ffffffffffffffff81111561238157612380613160565b5b61238d878288016121fe565b91505092959194509250565b600080604083850312156123b0576123af613165565b5b60006123be8582860161217c565b92505060206123cf858286016121bf565b9150509250929050565b600080604083850312156123f0576123ef613165565b5b60006123fe8582860161217c565b925050602061240f8582860161222c565b9150509250929050565b60006020828403121561242f5761242e613165565b5b600061243d848285016121d4565b91505092915050565b60006020828403121561245c5761245b613165565b5b600061246a848285016121e9565b91505092915050565b60006020828403121561248957612488613165565b5b60006124978482850161222c565b91505092915050565b6000602082840312156124b6576124b5613165565b5b60006124c484828501612241565b91505092915050565b600080604083850312156124e4576124e3613165565b5b60006124f28582860161222c565b925050602083013567ffffffffffffffff81111561251357612512613160565b5b61251f85828601612191565b9150509250929050565b600061253583836128b6565b60208301905092915050565b61254a81612e85565b82525050565b61255981612d64565b6125638184612d92565b925061256e82612d5a565b8060005b8381101561259f5781516125868782612529565b965061259183612d85565b925050600181019050612572565b505050505050565b6125b081612e97565b82525050565b6125bf81612ea3565b82525050565b60006125d082612d6f565b6125da8185612d9d565b93506125ea818560208601612f56565b6125f38161316a565b840191505092915050565b600061260982612d7a565b6126138185612dae565b9350612623818560208601612f56565b61262c8161316a565b840191505092915050565b600061264282612d7a565b61264c8185612dbf565b935061265c818560208601612f56565b80840191505092915050565b6000612675603283612dae565b91506126808261317b565b604082019050919050565b6000612698602583612dae565b91506126a3826131ca565b604082019050919050565b60006126bb601c83612dae565b91506126c682613219565b602082019050919050565b60006126de602483612dae565b91506126e982613242565b604082019050919050565b6000612701601983612dae565b915061270c82613291565b602082019050919050565b6000612724602c83612dae565b915061272f826132ba565b604082019050919050565b6000612747603883612dae565b915061275282613309565b604082019050919050565b600061276a602a83612dae565b915061277582613358565b604082019050919050565b600061278d602983612dae565b9150612798826133a7565b604082019050919050565b60006127b0602e83612dae565b91506127bb826133f6565b604082019050919050565b60006127d3602083612dae565b91506127de82613445565b602082019050919050565b60006127f6603183612dae565b91506128018261346e565b604082019050919050565b6000612819602c83612dae565b9150612824826134bd565b604082019050919050565b600061283c602f83612dae565b91506128478261350c565b604082019050919050565b600061285f602183612dae565b915061286a8261355b565b604082019050919050565b6000612882603183612dae565b915061288d826135aa565b604082019050919050565b6128a181612ed9565b82525050565b6128b081612f35565b82525050565b6128bf81612f07565b82525050565b6128ce81612f07565b82525050565b6128dd81612f11565b82525050565b6128ec81612f21565b82525050565b60006128fe8285612637565b915061290a8284612637565b91508190509392505050565b600060208201905061292b6000830184612541565b92915050565b60006040820190506129466000830185612541565b6129536020830184612541565b9392505050565b600060808201905061296f6000830187612541565b61297c6020830186612541565b61298960408301856128c5565b818103606083015261299b81846125c5565b905095945050505050565b60006060820190506129bb6000830184612550565b92915050565b60006020820190506129d660008301846125a7565b92915050565b60006020820190506129f160008301846125b6565b92915050565b600060a082019050612a0c60008301886125b6565b612a1960208301876128e3565b612a266040830186612898565b612a3360608301856128d4565b612a4060808301846128a7565b9695505050505050565b60006020820190508181036000830152612a6481846125fe565b905092915050565b60006020820190508181036000830152612a8581612668565b9050919050565b60006020820190508181036000830152612aa58161268b565b9050919050565b60006020820190508181036000830152612ac5816126ae565b9050919050565b60006020820190508181036000830152612ae5816126d1565b9050919050565b60006020820190508181036000830152612b05816126f4565b9050919050565b60006020820190508181036000830152612b2581612717565b9050919050565b60006020820190508181036000830152612b458161273a565b9050919050565b60006020820190508181036000830152612b658161275d565b9050919050565b60006020820190508181036000830152612b8581612780565b9050919050565b60006020820190508181036000830152612ba5816127a3565b9050919050565b60006020820190508181036000830152612bc5816127c6565b9050919050565b60006020820190508181036000830152612be5816127e9565b9050919050565b60006020820190508181036000830152612c058161280c565b9050919050565b60006020820190508181036000830152612c258161282f565b9050919050565b60006020820190508181036000830152612c4581612852565b9050919050565b60006020820190508181036000830152612c6581612875565b9050919050565b6000602082019050612c816000830184612898565b92915050565b6000602082019050612c9c60008301846128c5565b92915050565b6000602082019050612cb760008301846128d4565b92915050565b6000602082019050612cd260008301846128e3565b92915050565b6000612ce2612cf3565b9050612cee8282612fbb565b919050565b6000604051905090565b600067ffffffffffffffff821115612d1857612d17613122565b5b602082029050602081019050919050565b600067ffffffffffffffff821115612d4457612d43613122565b5b612d4d8261316a565b9050602081019050919050565b6000819050919050565b600060039050919050565b600081519050919050565b600081519050919050565b6000602082019050919050565b600081905092915050565b600082825260208201905092915050565b600082825260208201905092915050565b600081905092915050565b6000612dd582612f07565b9150612de083612f07565b9250827fffffffffffffffffffffffffffffffffffffffffffffffffffffffffffffffff03821115612e1557612e14613066565b5b828201905092915050565b6000612e2b82612f07565b9150612e3683612f07565b925082612e4657612e45613095565b5b828204905092915050565b6000612e5c82612f07565b9150612e6783612f07565b925082821015612e7a57612e79613066565b5b828203905092915050565b6000612e9082612ee7565b9050919050565b60008115159050919050565b6000819050919050565b60007fffffffff0000000000000000000000000000000000000000000000000000000082169050919050565b600061ffff82169050919050565b600073ffffffffffffffffffffffffffffffffffffffff82169050919050565b6000819050919050565b600063ffffffff82169050919050565b600067ffffffffffffffff82169050919050565b6000612f4082612ed9565b9050919050565b82818337600083830152505050565b60005b83811015612f74578082015181840152602081019050612f59565b83811115612f83576000848401525b50505050565b60006002820490506001821680612fa157607f821691505b60208210811415612fb557612fb46130c4565b5b50919050565b612fc48261316a565b810181811067ffffffffffffffff82111715612fe357612fe2613122565b5b80604052505050565b6000612ff782612f07565b91507fffffffffffffffffffffffffffffffffffffffffffffffffffffffffffffffff82141561302a57613029613066565b5b600182019050919050565b600061304082612f07565b915061304b83612f07565b92508261305b5761305a613095565b5b828206905092915050565b7f4e487b7100000000000000000000000000000000000000000000000000000000600052601160045260246000fd5b7f4e487b7100000000000000000000000000000000000000000000000000000000600052601260045260246000fd5b7f4e487b7100000000000000000000000000000000000000000000000000000000600052602260045260246000fd5b7f4e487b7100000000000000000000000000000000000000000000000000000000600052603260045260246000fd5b7f4e487b7100000000000000000000000000000000000000000000000000000000600052604160045260246000fd5b600080fd5b600080fd5b600080fd5b600080fd5b600080fd5b6000601f19601f8301169050919050565b7f4552433732313a207472616e7366657220746f206e6f6e20455243373231526560008201527f63656976657220696d706c656d656e7465720000000000000000000000000000602082015250565b7f4552433732313a207472616e736665722066726f6d20696e636f72726563742060008201527f6f776e6572000000000000000000000000000000000000000000000000000000602082015250565b7f4552433732313a20746f6b656e20616c7265616479206d696e74656400000000600082015250565b7f4552433732313a207472616e7366657220746f20746865207a65726f2061646460008201527f7265737300000000000000000000000000000000000000000000000000000000602082015250565b7f4552433732313a20617070726f766520746f2063616c6c657200000000000000600082015250565b7f4552433732313a206f70657261746f7220717565727920666f72206e6f6e657860008201527f697374656e7420746f6b656e0000000000000000000000000000000000000000602082015250565b7f4552433732313a20617070726f76652063616c6c6572206973206e6f74206f7760008201527f6e6572206e6f7220617070726f76656420666f7220616c6c0000000000000000602082015250565b7f4552433732313a2062616c616e636520717565727920666f7220746865207a6560008201527f726f206164647265737300000000000000000000000000000000000000000000602082015250565b7f4552433732313a206f776e657220717565727920666f72206e6f6e657869737460008201527f656e7420746f6b656e0000000000000000000000000000000000000000000000602082015250565b7f45524337323155524953746f726167653a2055524920736574206f66206e6f6e60008201527f6578697374656e7420746f6b656e000000000000000000000000000000000000602082015250565b7f4552433732313a206d696e7420746f20746865207a65726f2061646472657373600082015250565b7f45524337323155524953746f726167653a2055524920717565727920666f722060008201527f6e6f6e6578697374656e7420746f6b656e000000000000000000000000000000602082015250565b7f4552433732313a20617070726f76656420717565727920666f72206e6f6e657860008201527f697374656e7420746f6b656e0000000000000000000000000000000000000000602082015250565b7f4552433732314d657461646174613a2055524920717565727920666f72206e6f60008201527f6e6578697374656e7420746f6b656e0000000000000000000000000000000000602082015250565b7f4552433732313a20617070726f76616c20746f2063757272656e74206f776e6560008201527f7200000000000000000000000000000000000000000000000000000000000000602082015250565b7f4552433732313a207472616e736665722063616c6c6572206973206e6f74206f60008201527f776e6572206e6f7220617070726f766564000000000000000000000000000000602082015250565b61360281612e85565b811461360d57600080fd5b50565b61361981612e97565b811461362457600080fd5b50565b61363081612ead565b811461363b57600080fd5b50565b61364781612f07565b811461365257600080fd5b5056fea26469706673582212201082ddefe0450f98d2e36eb5ca6ca7aee0cfca652e20352c7da8e8fe6a289bd664736f6c63430008070033",
  "linkReferences": {},
  "deployedLinkReferences": {}
}